{
  "contractName": "PixelMatrix",
  "abi": [
    {
      "inputs": [],
      "stateMutability": "nonpayable",
      "type": "constructor"
    },
    {
      "anonymous": false,
      "inputs": [
        {
          "indexed": true,
          "internalType": "address",
          "name": "owner",
          "type": "address"
        },
        {
          "indexed": true,
          "internalType": "address",
          "name": "approved",
          "type": "address"
        },
        {
          "indexed": true,
          "internalType": "uint256",
          "name": "tokenId",
          "type": "uint256"
        }
      ],
      "name": "Approval",
      "type": "event"
    },
    {
      "anonymous": false,
      "inputs": [
        {
          "indexed": true,
          "internalType": "address",
          "name": "owner",
          "type": "address"
        },
        {
          "indexed": true,
          "internalType": "address",
          "name": "operator",
          "type": "address"
        },
        {
          "indexed": false,
          "internalType": "bool",
          "name": "approved",
          "type": "bool"
        }
      ],
      "name": "ApprovalForAll",
      "type": "event"
    },
    {
      "anonymous": false,
      "inputs": [
        {
          "indexed": true,
          "internalType": "address",
          "name": "previousOwner",
          "type": "address"
        },
        {
          "indexed": true,
          "internalType": "address",
          "name": "newOwner",
          "type": "address"
        }
      ],
      "name": "OwnershipTransferred",
      "type": "event"
    },
    {
      "anonymous": false,
      "inputs": [
        {
          "indexed": true,
          "internalType": "address",
          "name": "from",
          "type": "address"
        },
        {
          "indexed": true,
          "internalType": "address",
          "name": "to",
          "type": "address"
        },
        {
          "indexed": true,
          "internalType": "uint256",
          "name": "tokenId",
          "type": "uint256"
        }
      ],
      "name": "Transfer",
      "type": "event"
    },
    {
      "inputs": [
        {
          "internalType": "address",
          "name": "to",
          "type": "address"
        },
        {
          "internalType": "uint256",
          "name": "tokenId",
          "type": "uint256"
        }
      ],
      "name": "approve",
      "outputs": [],
      "stateMutability": "nonpayable",
      "type": "function"
    },
    {
      "inputs": [
        {
          "internalType": "address",
          "name": "owner",
          "type": "address"
        }
      ],
      "name": "balanceOf",
      "outputs": [
        {
          "internalType": "uint256",
          "name": "",
          "type": "uint256"
        }
      ],
      "stateMutability": "view",
      "type": "function",
      "constant": true
    },
    {
      "inputs": [
        {
          "internalType": "uint256",
          "name": "tokenId",
          "type": "uint256"
        }
      ],
      "name": "getApproved",
      "outputs": [
        {
          "internalType": "address",
          "name": "",
          "type": "address"
        }
      ],
      "stateMutability": "view",
      "type": "function",
      "constant": true
    },
    {
      "inputs": [
        {
          "internalType": "address",
          "name": "owner",
          "type": "address"
        },
        {
          "internalType": "address",
          "name": "operator",
          "type": "address"
        }
      ],
      "name": "isApprovedForAll",
      "outputs": [
        {
          "internalType": "bool",
          "name": "",
          "type": "bool"
        }
      ],
      "stateMutability": "view",
      "type": "function",
      "constant": true
    },
    {
      "inputs": [],
      "name": "name",
      "outputs": [
        {
          "internalType": "string",
          "name": "",
          "type": "string"
        }
      ],
      "stateMutability": "view",
      "type": "function",
      "constant": true
    },
    {
      "inputs": [],
      "name": "owner",
      "outputs": [
        {
          "internalType": "address",
          "name": "",
          "type": "address"
        }
      ],
      "stateMutability": "view",
      "type": "function",
      "constant": true
    },
    {
      "inputs": [
        {
          "internalType": "uint256",
          "name": "tokenId",
          "type": "uint256"
        }
      ],
      "name": "ownerOf",
      "outputs": [
        {
          "internalType": "address",
          "name": "",
          "type": "address"
        }
      ],
      "stateMutability": "view",
      "type": "function",
      "constant": true
    },
    {
      "inputs": [],
      "name": "renounceOwnership",
      "outputs": [],
      "stateMutability": "nonpayable",
      "type": "function"
    },
    {
      "inputs": [
        {
          "internalType": "address",
          "name": "from",
          "type": "address"
        },
        {
          "internalType": "address",
          "name": "to",
          "type": "address"
        },
        {
          "internalType": "uint256",
          "name": "tokenId",
          "type": "uint256"
        }
      ],
      "name": "safeTransferFrom",
      "outputs": [],
      "stateMutability": "nonpayable",
      "type": "function"
    },
    {
      "inputs": [
        {
          "internalType": "address",
          "name": "from",
          "type": "address"
        },
        {
          "internalType": "address",
          "name": "to",
          "type": "address"
        },
        {
          "internalType": "uint256",
          "name": "tokenId",
          "type": "uint256"
        },
        {
          "internalType": "bytes",
          "name": "_data",
          "type": "bytes"
        }
      ],
      "name": "safeTransferFrom",
      "outputs": [],
      "stateMutability": "nonpayable",
      "type": "function"
    },
    {
      "inputs": [
        {
          "internalType": "address",
          "name": "operator",
          "type": "address"
        },
        {
          "internalType": "bool",
          "name": "approved",
          "type": "bool"
        }
      ],
      "name": "setApprovalForAll",
      "outputs": [],
      "stateMutability": "nonpayable",
      "type": "function"
    },
    {
      "inputs": [
        {
          "internalType": "bytes4",
          "name": "interfaceId",
          "type": "bytes4"
        }
      ],
      "name": "supportsInterface",
      "outputs": [
        {
          "internalType": "bool",
          "name": "",
          "type": "bool"
        }
      ],
      "stateMutability": "view",
      "type": "function",
      "constant": true
    },
    {
      "inputs": [],
      "name": "symbol",
      "outputs": [
        {
          "internalType": "string",
          "name": "",
          "type": "string"
        }
      ],
      "stateMutability": "view",
      "type": "function",
      "constant": true
    },
    {
      "inputs": [
        {
          "internalType": "uint256",
          "name": "tokenId",
          "type": "uint256"
        }
      ],
      "name": "tokenURI",
      "outputs": [
        {
          "internalType": "string",
          "name": "",
          "type": "string"
        }
      ],
      "stateMutability": "view",
      "type": "function",
      "constant": true
    },
    {
      "inputs": [
        {
          "internalType": "address",
          "name": "from",
          "type": "address"
        },
        {
          "internalType": "address",
          "name": "to",
          "type": "address"
        },
        {
          "internalType": "uint256",
          "name": "tokenId",
          "type": "uint256"
        }
      ],
      "name": "transferFrom",
      "outputs": [],
      "stateMutability": "nonpayable",
      "type": "function"
    },
    {
      "inputs": [
        {
          "internalType": "address",
          "name": "newOwner",
          "type": "address"
        }
      ],
      "name": "transferOwnership",
      "outputs": [],
      "stateMutability": "nonpayable",
      "type": "function"
    },
    {
      "inputs": [
        {
          "internalType": "address",
          "name": "recipient",
          "type": "address"
        },
        {
          "internalType": "uint256",
          "name": "mintAmount",
          "type": "uint256"
        }
      ],
      "name": "mint",
      "outputs": [
        {
          "internalType": "uint256",
          "name": "",
          "type": "uint256"
        }
      ],
      "stateMutability": "payable",
      "type": "function",
      "payable": true
    },
    {
      "inputs": [
        {
          "internalType": "uint256[]",
          "name": "tokenIDs",
          "type": "uint256[]"
        },
        {
          "internalType": "string[]",
          "name": "tokenURIs",
          "type": "string[]"
        }
      ],
      "name": "updateTokens",
      "outputs": [],
      "stateMutability": "nonpayable",
      "type": "function"
    },
    {
      "inputs": [],
      "name": "withdraw",
      "outputs": [],
      "stateMutability": "nonpayable",
      "type": "function"
    },
    {
      "inputs": [],
      "name": "getPrice",
      "outputs": [
        {
          "internalType": "uint256",
          "name": "",
          "type": "uint256"
        }
      ],
      "stateMutability": "view",
      "type": "function",
      "constant": true
    }
  ],
  "bytecode": "0x6080604052666a94d74f430000600955600a8055614570600b556156cc600c5560405180602001604052806000815250600d908051906020019062000046929190620001e9565b503480156200005457600080fd5b506040518060400160405280600c81526020017f506978656c204d617472697800000000000000000000000000000000000000008152506040518060400160405280600381526020017f504d5800000000000000000000000000000000000000000000000000000000008152508160009080519060200190620000d9929190620001e9565b508060019080519060200190620000f2929190620001e9565b50505062000115620001096200011b60201b60201c565b6200012360201b60201c565b620002fe565b600033905090565b6000600760009054906101000a900473ffffffffffffffffffffffffffffffffffffffff16905081600760006101000a81548173ffffffffffffffffffffffffffffffffffffffff021916908373ffffffffffffffffffffffffffffffffffffffff1602179055508173ffffffffffffffffffffffffffffffffffffffff168173ffffffffffffffffffffffffffffffffffffffff167f8be0079c531659141344cd1fd0a4f28419497f9722a3daafe3b4186f6b6457e060405160405180910390a35050565b828054620001f79062000299565b90600052602060002090601f0160209004810192826200021b576000855562000267565b82601f106200023657805160ff191683800117855562000267565b8280016001018555821562000267579182015b828111156200026657825182559160200191906001019062000249565b5b5090506200027691906200027a565b5090565b5b80821115620002955760008160009055506001016200027b565b5090565b60006002820490506001821680620002b257607f821691505b60208210811415620002c957620002c8620002cf565b5b50919050565b7f4e487b7100000000000000000000000000000000000000000000000000000000600052602260045260246000fd5b61365c806200030e6000396000f3fe60806040526004361061011f5760003560e01c806370a08231116100a0578063a22cb46511610064578063a22cb465146103c6578063b88d4fde146103ef578063c87b56dd14610418578063e985e9c514610455578063f2fde38b146104925761011f565b806370a08231146102f1578063715018a61461032e5780638da5cb5b1461034557806395d89b411461037057806398d5fdca1461039b5761011f565b806323b872dd116100e757806323b872dd1461021b5780633ccfd60b1461024457806340c10f191461025b57806342842e0e1461028b5780636352211e146102b45761011f565b806301ffc9a71461012457806306fdde0314610161578063081812fc1461018c578063095ea7b3146101c95780631a55c97b146101f2575b600080fd5b34801561013057600080fd5b5061014b60048036038101906101469190612512565b6104bb565b6040516101589190612e62565b60405180910390f35b34801561016d57600080fd5b5061017661059d565b6040516101839190612e7d565b60405180910390f35b34801561019857600080fd5b506101b360048036038101906101ae9190612564565b61062f565b6040516101c09190612dfb565b60405180910390f35b3480156101d557600080fd5b506101f060048036038101906101eb919061246a565b6106b4565b005b3480156101fe57600080fd5b50610219600480360381019061021491906124a6565b6107cc565b005b34801561022757600080fd5b50610242600480360381019061023d9190612364565b610904565b005b34801561025057600080fd5b50610259610964565b005b6102756004803603810190610270919061246a565b610a29565b604051610282919061313f565b60405180910390f35b34801561029757600080fd5b506102b260048036038101906102ad9190612364565b610bfa565b005b3480156102c057600080fd5b506102db60048036038101906102d69190612564565b610c1a565b6040516102e89190612dfb565b60405180910390f35b3480156102fd57600080fd5b50610318600480360381019061031391906122ff565b610ccc565b604051610325919061313f565b60405180910390f35b34801561033a57600080fd5b50610343610d84565b005b34801561035157600080fd5b5061035a610e0c565b6040516103679190612dfb565b60405180910390f35b34801561037c57600080fd5b50610385610e36565b6040516103929190612e7d565b60405180910390f35b3480156103a757600080fd5b506103b0610ec8565b6040516103bd919061313f565b60405180910390f35b3480156103d257600080fd5b506103ed60048036038101906103e8919061242e565b610ed2565b005b3480156103fb57600080fd5b50610416600480360381019061041191906123b3565b611053565b005b34801561042457600080fd5b5061043f600480360381019061043a9190612564565b6110b5565b60405161044c9190612e7d565b60405180910390f35b34801561046157600080fd5b5061047c60048036038101906104779190612328565b611207565b6040516104899190612e62565b60405180910390f35b34801561049e57600080fd5b506104b960048036038101906104b491906122ff565b61129b565b005b60007f80ac58cd000000000000000000000000000000000000000000000000000000007bffffffffffffffffffffffffffffffffffffffffffffffffffffffff1916827bffffffffffffffffffffffffffffffffffffffffffffffffffffffff1916148061058657507f5b5e139f000000000000000000000000000000000000000000000000000000007bffffffffffffffffffffffffffffffffffffffffffffffffffffffff1916827bffffffffffffffffffffffffffffffffffffffffffffffffffffffff1916145b80610596575061059582611393565b5b9050919050565b6060600080546105ac90613451565b80601f01602080910402602001604051908101604052809291908181526020018280546105d890613451565b80156106255780601f106105fa57610100808354040283529160200191610625565b820191906000526020600020905b81548152906001019060200180831161060857829003601f168201915b5050505050905090565b600061063a826113fd565b610679576040517f08c379a00000000000000000000000000000000000000000000000000000000081526004016106709061305f565b60405180910390fd5b6004600083815260200190815260200160002060009054906101000a900473ffffffffffffffffffffffffffffffffffffffff169050919050565b60006106bf82610c1a565b90508073ffffffffffffffffffffffffffffffffffffffff168373ffffffffffffffffffffffffffffffffffffffff161415610730576040517f08c379a0000000000000000000000000000000000000000000000000000000008152600401610727906130df565b60405180910390fd5b8073ffffffffffffffffffffffffffffffffffffffff1661074f611469565b73ffffffffffffffffffffffffffffffffffffffff16148061077e575061077d81610778611469565b611207565b5b6107bd576040517f08c379a00000000000000000000000000000000000000000000000000000000081526004016107b490612f9f565b60405180910390fd5b6107c78383611471565b505050565b6107d4611469565b73ffffffffffffffffffffffffffffffffffffffff166107f2610e0c565b73ffffffffffffffffffffffffffffffffffffffff1614610848576040517f08c379a000000000000000000000000000000000000000000000000000000000815260040161083f9061307f565b60405180910390fd5b805182511461085657600080fd5b60005b82518110156108ff576108ec83828151811061089e577f4e487b7100000000000000000000000000000000000000000000000000000000600052603260045260246000fd5b60200260200101518383815181106108df577f4e487b7100000000000000000000000000000000000000000000000000000000600052603260045260246000fd5b602002602001015161152a565b80806108f790613483565b915050610859565b505050565b61091561090f611469565b8261159e565b610954576040517f08c379a000000000000000000000000000000000000000000000000000000000815260040161094b906130ff565b60405180910390fd5b61095f83838361167c565b505050565b61096c611469565b73ffffffffffffffffffffffffffffffffffffffff1661098a610e0c565b73ffffffffffffffffffffffffffffffffffffffff16146109e0576040517f08c379a00000000000000000000000000000000000000000000000000000000081526004016109d79061307f565b60405180910390fd5b3373ffffffffffffffffffffffffffffffffffffffff166108fc479081150290604051600060405180830381858888f19350505050158015610a26573d6000803e3d6000fd5b50565b6000600a54821115610a70576040517f08c379a0000000000000000000000000000000000000000000000000000000008152600401610a6790612f7f565b60405180910390fd5b81600954610a7e919061330d565b341015610ac0576040517f08c379a0000000000000000000000000000000000000000000000000000000008152600401610ab79061311f565b60405180910390fd5b600b5482610ace60086118d8565b610ad89190613286565b1115610b19576040517f08c379a0000000000000000000000000000000000000000000000000000000008152600401610b1090612edf565b60405180910390fd5b600080600190505b838111610bef57610b3260086118e6565b610b3c60086118d8565b9150610b4885836118fc565b610bdc82600d8054610b5990613451565b80601f0160208091040260200160405190810160405280929190818152602001828054610b8590613451565b8015610bd25780601f10610ba757610100808354040283529160200191610bd2565b820191906000526020600020905b815481529060010190602001808311610bb557829003601f168201915b505050505061152a565b8080610be790613483565b915050610b21565b508091505092915050565b610c1583838360405180602001604052806000815250611053565b505050565b6000806002600084815260200190815260200160002060009054906101000a900473ffffffffffffffffffffffffffffffffffffffff169050600073ffffffffffffffffffffffffffffffffffffffff168173ffffffffffffffffffffffffffffffffffffffff161415610cc3576040517f08c379a0000000000000000000000000000000000000000000000000000000008152600401610cba90612fdf565b60405180910390fd5b80915050919050565b60008073ffffffffffffffffffffffffffffffffffffffff168273ffffffffffffffffffffffffffffffffffffffff161415610d3d576040517f08c379a0000000000000000000000000000000000000000000000000000000008152600401610d3490612fbf565b60405180910390fd5b600360008373ffffffffffffffffffffffffffffffffffffffff1673ffffffffffffffffffffffffffffffffffffffff168152602001908152602001600020549050919050565b610d8c611469565b73ffffffffffffffffffffffffffffffffffffffff16610daa610e0c565b73ffffffffffffffffffffffffffffffffffffffff1614610e00576040517f08c379a0000000000000000000000000000000000000000000000000000000008152600401610df79061307f565b60405180910390fd5b610e0a6000611aca565b565b6000600760009054906101000a900473ffffffffffffffffffffffffffffffffffffffff16905090565b606060018054610e4590613451565b80601f0160208091040260200160405190810160405280929190818152602001828054610e7190613451565b8015610ebe5780601f10610e9357610100808354040283529160200191610ebe565b820191906000526020600020905b815481529060010190602001808311610ea157829003601f168201915b5050505050905090565b6000600954905090565b610eda611469565b73ffffffffffffffffffffffffffffffffffffffff168273ffffffffffffffffffffffffffffffffffffffff161415610f48576040517f08c379a0000000000000000000000000000000000000000000000000000000008152600401610f3f90612f3f565b60405180910390fd5b8060056000610f55611469565b73ffffffffffffffffffffffffffffffffffffffff1673ffffffffffffffffffffffffffffffffffffffff16815260200190815260200160002060008473ffffffffffffffffffffffffffffffffffffffff1673ffffffffffffffffffffffffffffffffffffffff16815260200190815260200160002060006101000a81548160ff0219169083151502179055508173ffffffffffffffffffffffffffffffffffffffff16611002611469565b73ffffffffffffffffffffffffffffffffffffffff167f17307eab39ab6107e8899845ad3d59bd9653f200f220920489ca2b5937696c31836040516110479190612e62565b60405180910390a35050565b61106461105e611469565b8361159e565b6110a3576040517f08c379a000000000000000000000000000000000000000000000000000000000815260040161109a906130ff565b60405180910390fd5b6110af84848484611b90565b50505050565b60606110c0826113fd565b6110ff576040517f08c379a00000000000000000000000000000000000000000000000000000000081526004016110f69061303f565b60405180910390fd5b600060066000848152602001908152602001600020805461111f90613451565b80601f016020809104026020016040519081016040528092919081815260200182805461114b90613451565b80156111985780601f1061116d57610100808354040283529160200191611198565b820191906000526020600020905b81548152906001019060200180831161117b57829003601f168201915b5050505050905060006111a9611bec565b90506000815114156111bf578192505050611202565b6000825111156111f45780826040516020016111dc929190612dd7565b60405160208183030381529060405292505050611202565b6111fd84611c03565b925050505b919050565b6000600560008473ffffffffffffffffffffffffffffffffffffffff1673ffffffffffffffffffffffffffffffffffffffff16815260200190815260200160002060008373ffffffffffffffffffffffffffffffffffffffff1673ffffffffffffffffffffffffffffffffffffffff16815260200190815260200160002060009054906101000a900460ff16905092915050565b6112a3611469565b73ffffffffffffffffffffffffffffffffffffffff166112c1610e0c565b73ffffffffffffffffffffffffffffffffffffffff1614611317576040517f08c379a000000000000000000000000000000000000000000000000000000000815260040161130e9061307f565b60405180910390fd5b600073ffffffffffffffffffffffffffffffffffffffff168173ffffffffffffffffffffffffffffffffffffffff161415611387576040517f08c379a000000000000000000000000000000000000000000000000000000000815260040161137e90612ebf565b60405180910390fd5b61139081611aca565b50565b60007f01ffc9a7000000000000000000000000000000000000000000000000000000007bffffffffffffffffffffffffffffffffffffffffffffffffffffffff1916827bffffffffffffffffffffffffffffffffffffffffffffffffffffffff1916149050919050565b60008073ffffffffffffffffffffffffffffffffffffffff166002600084815260200190815260200160002060009054906101000a900473ffffffffffffffffffffffffffffffffffffffff1673ffffffffffffffffffffffffffffffffffffffff1614159050919050565b600033905090565b816004600083815260200190815260200160002060006101000a81548173ffffffffffffffffffffffffffffffffffffffff021916908373ffffffffffffffffffffffffffffffffffffffff160217905550808273ffffffffffffffffffffffffffffffffffffffff166114e483610c1a565b73ffffffffffffffffffffffffffffffffffffffff167f8c5be1e5ebec7d5bd14f71427d1e84f3dd0314c0f7b2291e5b200ac8c7c3b92560405160405180910390a45050565b611533826113fd565b611572576040517f08c379a000000000000000000000000000000000000000000000000000000000815260040161156990612fff565b60405180910390fd5b80600660008481526020019081526020016000209080519060200190611599929190612006565b505050565b60006115a9826113fd565b6115e8576040517f08c379a00000000000000000000000000000000000000000000000000000000081526004016115df90612f5f565b60405180910390fd5b60006115f383610c1a565b90508073ffffffffffffffffffffffffffffffffffffffff168473ffffffffffffffffffffffffffffffffffffffff16148061166257508373ffffffffffffffffffffffffffffffffffffffff1661164a8461062f565b73ffffffffffffffffffffffffffffffffffffffff16145b8061167357506116728185611207565b5b91505092915050565b8273ffffffffffffffffffffffffffffffffffffffff1661169c82610c1a565b73ffffffffffffffffffffffffffffffffffffffff16146116f2576040517f08c379a00000000000000000000000000000000000000000000000000000000081526004016116e99061309f565b60405180910390fd5b600073ffffffffffffffffffffffffffffffffffffffff168273ffffffffffffffffffffffffffffffffffffffff161415611762576040517f08c379a000000000000000000000000000000000000000000000000000000000815260040161175990612f1f565b60405180910390fd5b61176d838383611caa565b611778600082611471565b6001600360008573ffffffffffffffffffffffffffffffffffffffff1673ffffffffffffffffffffffffffffffffffffffff16815260200190815260200160002060008282546117c89190613367565b925050819055506001600360008473ffffffffffffffffffffffffffffffffffffffff1673ffffffffffffffffffffffffffffffffffffffff168152602001908152602001600020600082825461181f9190613286565b92505081905550816002600083815260200190815260200160002060006101000a81548173ffffffffffffffffffffffffffffffffffffffff021916908373ffffffffffffffffffffffffffffffffffffffff160217905550808273ffffffffffffffffffffffffffffffffffffffff168473ffffffffffffffffffffffffffffffffffffffff167fddf252ad1be2c89b69c2b068fc378daa952ba7f163c4a11628f55a4df523b3ef60405160405180910390a4505050565b600081600001549050919050565b6001816000016000828254019250508190555050565b600073ffffffffffffffffffffffffffffffffffffffff168273ffffffffffffffffffffffffffffffffffffffff16141561196c576040517f08c379a00000000000000000000000000000000000000000000000000000000081526004016119639061301f565b60405180910390fd5b611975816113fd565b156119b5576040517f08c379a00000000000000000000000000000000000000000000000000000000081526004016119ac90612eff565b60405180910390fd5b6119c160008383611caa565b6001600360008473ffffffffffffffffffffffffffffffffffffffff1673ffffffffffffffffffffffffffffffffffffffff1681526020019081526020016000206000828254611a119190613286565b92505081905550816002600083815260200190815260200160002060006101000a81548173ffffffffffffffffffffffffffffffffffffffff021916908373ffffffffffffffffffffffffffffffffffffffff160217905550808273ffffffffffffffffffffffffffffffffffffffff16600073ffffffffffffffffffffffffffffffffffffffff167fddf252ad1be2c89b69c2b068fc378daa952ba7f163c4a11628f55a4df523b3ef60405160405180910390a45050565b6000600760009054906101000a900473ffffffffffffffffffffffffffffffffffffffff16905081600760006101000a81548173ffffffffffffffffffffffffffffffffffffffff021916908373ffffffffffffffffffffffffffffffffffffffff1602179055508173ffffffffffffffffffffffffffffffffffffffff168173ffffffffffffffffffffffffffffffffffffffff167f8be0079c531659141344cd1fd0a4f28419497f9722a3daafe3b4186f6b6457e060405160405180910390a35050565b611b9b84848461167c565b611ba784848484611caf565b611be6576040517f08c379a0000000000000000000000000000000000000000000000000000000008152600401611bdd90612e9f565b60405180910390fd5b50505050565b606060405180602001604052806000815250905090565b6060611c0e826113fd565b611c4d576040517f08c379a0000000000000000000000000000000000000000000000000000000008152600401611c44906130bf565b60405180910390fd5b6000611c57611bec565b90506000815111611c775760405180602001604052806000815250611ca2565b80611c8184611e46565b604051602001611c92929190612dd7565b6040516020818303038152906040525b915050919050565b505050565b6000611cd08473ffffffffffffffffffffffffffffffffffffffff16611ff3565b15611e39578373ffffffffffffffffffffffffffffffffffffffff1663150b7a02611cf9611469565b8786866040518563ffffffff1660e01b8152600401611d1b9493929190612e16565b602060405180830381600087803b158015611d3557600080fd5b505af1925050508015611d6657506040513d601f19601f82011682018060405250810190611d63919061253b565b60015b611de9573d8060008114611d96576040519150601f19603f3d011682016040523d82523d6000602084013e611d9b565b606091505b50600081511415611de1576040517f08c379a0000000000000000000000000000000000000000000000000000000008152600401611dd890612e9f565b60405180910390fd5b805181602001fd5b63150b7a0260e01b7bffffffffffffffffffffffffffffffffffffffffffffffffffffffff1916817bffffffffffffffffffffffffffffffffffffffffffffffffffffffff191614915050611e3e565b600190505b949350505050565b60606000821415611e8e576040518060400160405280600181526020017f30000000000000000000000000000000000000000000000000000000000000008152509050611fee565b600082905060005b60008214611ec0578080611ea990613483565b915050600a82611eb991906132dc565b9150611e96565b60008167ffffffffffffffff811115611f02577f4e487b7100000000000000000000000000000000000000000000000000000000600052604160045260246000fd5b6040519080825280601f01601f191660200182016040528015611f345781602001600182028036833780820191505090505b5090505b60008514611fe757600182611f4d9190613367565b9150600a85611f5c91906134cc565b6030611f689190613286565b60f81b818381518110611fa4577f4e487b7100000000000000000000000000000000000000000000000000000000600052603260045260246000fd5b60200101907effffffffffffffffffffffffffffffffffffffffffffffffffffffffffffff1916908160001a905350600a85611fe091906132dc565b9450611f38565b8093505050505b919050565b600080823b905060008111915050919050565b82805461201290613451565b90600052602060002090601f016020900481019282612034576000855561207b565b82601f1061204d57805160ff191683800117855561207b565b8280016001018555821561207b579182015b8281111561207a57825182559160200191906001019061205f565b5b509050612088919061208c565b5090565b5b808211156120a557600081600090555060010161208d565b5090565b60006120bc6120b78461318b565b61315a565b9050808382526020820190508260005b858110156120fc57813585016120e288826122c0565b8452602084019350602083019250506001810190506120cc565b5050509392505050565b6000612119612114846131b7565b61315a565b9050808382526020820190508285602086028201111561213857600080fd5b60005b85811015612168578161214e88826122ea565b84526020840193506020830192505060018101905061213b565b5050509392505050565b6000612185612180846131e3565b61315a565b90508281526020810184848401111561219d57600080fd5b6121a884828561340f565b509392505050565b60006121c36121be84613213565b61315a565b9050828152602081018484840111156121db57600080fd5b6121e684828561340f565b509392505050565b6000813590506121fd816135ca565b92915050565b600082601f83011261221457600080fd5b81356122248482602086016120a9565b91505092915050565b600082601f83011261223e57600080fd5b813561224e848260208601612106565b91505092915050565b600081359050612266816135e1565b92915050565b60008135905061227b816135f8565b92915050565b600081519050612290816135f8565b92915050565b600082601f8301126122a757600080fd5b81356122b7848260208601612172565b91505092915050565b600082601f8301126122d157600080fd5b81356122e18482602086016121b0565b91505092915050565b6000813590506122f98161360f565b92915050565b60006020828403121561231157600080fd5b600061231f848285016121ee565b91505092915050565b6000806040838503121561233b57600080fd5b6000612349858286016121ee565b925050602061235a858286016121ee565b9150509250929050565b60008060006060848603121561237957600080fd5b6000612387868287016121ee565b9350506020612398868287016121ee565b92505060406123a9868287016122ea565b9150509250925092565b600080600080608085870312156123c957600080fd5b60006123d7878288016121ee565b94505060206123e8878288016121ee565b93505060406123f9878288016122ea565b925050606085013567ffffffffffffffff81111561241657600080fd5b61242287828801612296565b91505092959194509250565b6000806040838503121561244157600080fd5b600061244f858286016121ee565b925050602061246085828601612257565b9150509250929050565b6000806040838503121561247d57600080fd5b600061248b858286016121ee565b925050602061249c858286016122ea565b9150509250929050565b600080604083850312156124b957600080fd5b600083013567ffffffffffffffff8111156124d357600080fd5b6124df8582860161222d565b925050602083013567ffffffffffffffff8111156124fc57600080fd5b61250885828601612203565b9150509250929050565b60006020828403121561252457600080fd5b60006125328482850161226c565b91505092915050565b60006020828403121561254d57600080fd5b600061255b84828501612281565b91505092915050565b60006020828403121561257657600080fd5b6000612584848285016122ea565b91505092915050565b6125968161339b565b82525050565b6125a5816133ad565b82525050565b60006125b682613243565b6125c08185613259565b93506125d081856020860161341e565b6125d9816135b9565b840191505092915050565b60006125ef8261324e565b6125f9818561326a565b935061260981856020860161341e565b612612816135b9565b840191505092915050565b60006126288261324e565b612632818561327b565b935061264281856020860161341e565b80840191505092915050565b600061265b60328361326a565b91507f4552433732313a207472616e7366657220746f206e6f6e20455243373231526560008301527f63656976657220696d706c656d656e74657200000000000000000000000000006020830152604082019050919050565b60006126c160268361326a565b91507f4f776e61626c653a206e6577206f776e657220697320746865207a65726f206160008301527f64647265737300000000000000000000000000000000000000000000000000006020830152604082019050919050565b600061272760178361326a565b91507f4e6f7420656e6f75676820746f6b656e73206c656674210000000000000000006000830152602082019050919050565b6000612767601c8361326a565b91507f4552433732313a20746f6b656e20616c7265616479206d696e746564000000006000830152602082019050919050565b60006127a760248361326a565b91507f4552433732313a207472616e7366657220746f20746865207a65726f2061646460008301527f72657373000000000000000000000000000000000000000000000000000000006020830152604082019050919050565b600061280d60198361326a565b91507f4552433732313a20617070726f766520746f2063616c6c6572000000000000006000830152602082019050919050565b600061284d602c8361326a565b91507f4552433732313a206f70657261746f7220717565727920666f72206e6f6e657860008301527f697374656e7420746f6b656e00000000000000000000000000000000000000006020830152604082019050919050565b60006128b3600d8361326a565b91507f4d61782d6d696e74203d203130000000000000000000000000000000000000006000830152602082019050919050565b60006128f360388361326a565b91507f4552433732313a20617070726f76652063616c6c6572206973206e6f74206f7760008301527f6e6572206e6f7220617070726f76656420666f7220616c6c00000000000000006020830152604082019050919050565b6000612959602a8361326a565b91507f4552433732313a2062616c616e636520717565727920666f7220746865207a6560008301527f726f2061646472657373000000000000000000000000000000000000000000006020830152604082019050919050565b60006129bf60298361326a565b91507f4552433732313a206f776e657220717565727920666f72206e6f6e657869737460008301527f656e7420746f6b656e00000000000000000000000000000000000000000000006020830152604082019050919050565b6000612a25602e8361326a565b91507f45524337323155524953746f726167653a2055524920736574206f66206e6f6e60008301527f6578697374656e7420746f6b656e0000000000000000000000000000000000006020830152604082019050919050565b6000612a8b60208361326a565b91507f4552433732313a206d696e7420746f20746865207a65726f20616464726573736000830152602082019050919050565b6000612acb60318361326a565b91507f45524337323155524953746f726167653a2055524920717565727920666f722060008301527f6e6f6e6578697374656e7420746f6b656e0000000000000000000000000000006020830152604082019050919050565b6000612b31602c8361326a565b91507f4552433732313a20617070726f76656420717565727920666f72206e6f6e657860008301527f697374656e7420746f6b656e00000000000000000000000000000000000000006020830152604082019050919050565b6000612b9760208361326a565b91507f4f776e61626c653a2063616c6c6572206973206e6f7420746865206f776e65726000830152602082019050919050565b6000612bd760298361326a565b91507f4552433732313a207472616e73666572206f6620746f6b656e2074686174206960008301527f73206e6f74206f776e00000000000000000000000000000000000000000000006020830152604082019050919050565b6000612c3d602f8361326a565b91507f4552433732314d657461646174613a2055524920717565727920666f72206e6f60008301527f6e6578697374656e7420746f6b656e00000000000000000000000000000000006020830152604082019050919050565b6000612ca360218361326a565b91507f4552433732313a20617070726f76616c20746f2063757272656e74206f776e6560008301527f72000000000000000000000000000000000000000000000000000000000000006020830152604082019050919050565b6000612d0960318361326a565b91507f4552433732313a207472616e736665722063616c6c6572206973206e6f74206f60008301527f776e6572206e6f7220617070726f7665640000000000000000000000000000006020830152604082019050919050565b6000612d6f60218361326a565b91507f4e6f7420656e6f756768204554482073656e743b20636865636b20707269636560008301527f21000000000000000000000000000000000000000000000000000000000000006020830152604082019050919050565b612dd181613405565b82525050565b6000612de3828561261d565b9150612def828461261d565b91508190509392505050565b6000602082019050612e10600083018461258d565b92915050565b6000608082019050612e2b600083018761258d565b612e38602083018661258d565b612e456040830185612dc8565b8181036060830152612e5781846125ab565b905095945050505050565b6000602082019050612e77600083018461259c565b92915050565b60006020820190508181036000830152612e9781846125e4565b905092915050565b60006020820190508181036000830152612eb88161264e565b9050919050565b60006020820190508181036000830152612ed8816126b4565b9050919050565b60006020820190508181036000830152612ef88161271a565b9050919050565b60006020820190508181036000830152612f188161275a565b9050919050565b60006020820190508181036000830152612f388161279a565b9050919050565b60006020820190508181036000830152612f5881612800565b9050919050565b60006020820190508181036000830152612f7881612840565b9050919050565b60006020820190508181036000830152612f98816128a6565b9050919050565b60006020820190508181036000830152612fb8816128e6565b9050919050565b60006020820190508181036000830152612fd88161294c565b9050919050565b60006020820190508181036000830152612ff8816129b2565b9050919050565b6000602082019050818103600083015261301881612a18565b9050919050565b6000602082019050818103600083015261303881612a7e565b9050919050565b6000602082019050818103600083015261305881612abe565b9050919050565b6000602082019050818103600083015261307881612b24565b9050919050565b6000602082019050818103600083015261309881612b8a565b9050919050565b600060208201905081810360008301526130b881612bca565b9050919050565b600060208201905081810360008301526130d881612c30565b9050919050565b600060208201905081810360008301526130f881612c96565b9050919050565b6000602082019050818103600083015261311881612cfc565b9050919050565b6000602082019050818103600083015261313881612d62565b9050919050565b60006020820190506131546000830184612dc8565b92915050565b6000604051905081810181811067ffffffffffffffff821117156131815761318061358a565b5b8060405250919050565b600067ffffffffffffffff8211156131a6576131a561358a565b5b602082029050602081019050919050565b600067ffffffffffffffff8211156131d2576131d161358a565b5b602082029050602081019050919050565b600067ffffffffffffffff8211156131fe576131fd61358a565b5b601f19601f8301169050602081019050919050565b600067ffffffffffffffff82111561322e5761322d61358a565b5b601f19601f8301169050602081019050919050565b600081519050919050565b600081519050919050565b600082825260208201905092915050565b600082825260208201905092915050565b600081905092915050565b600061329182613405565b915061329c83613405565b9250827fffffffffffffffffffffffffffffffffffffffffffffffffffffffffffffffff038211156132d1576132d06134fd565b5b828201905092915050565b60006132e782613405565b91506132f283613405565b9250826133025761330161352c565b5b828204905092915050565b600061331882613405565b915061332383613405565b9250817fffffffffffffffffffffffffffffffffffffffffffffffffffffffffffffffff048311821515161561335c5761335b6134fd565b5b828202905092915050565b600061337282613405565b915061337d83613405565b9250828210156133905761338f6134fd565b5b828203905092915050565b60006133a6826133e5565b9050919050565b60008115159050919050565b60007fffffffff0000000000000000000000000000000000000000000000000000000082169050919050565b600073ffffffffffffffffffffffffffffffffffffffff82169050919050565b6000819050919050565b82818337600083830152505050565b60005b8381101561343c578082015181840152602081019050613421565b8381111561344b576000848401525b50505050565b6000600282049050600182168061346957607f821691505b6020821081141561347d5761347c61355b565b5b50919050565b600061348e82613405565b91507fffffffffffffffffffffffffffffffffffffffffffffffffffffffffffffffff8214156134c1576134c06134fd565b5b600182019050919050565b60006134d782613405565b91506134e283613405565b9250826134f2576134f161352c565b5b828206905092915050565b7f4e487b7100000000000000000000000000000000000000000000000000000000600052601160045260246000fd5b7f4e487b7100000000000000000000000000000000000000000000000000000000600052601260045260246000fd5b7f4e487b7100000000000000000000000000000000000000000000000000000000600052602260045260246000fd5b7f4e487b7100000000000000000000000000000000000000000000000000000000600052604160045260246000fd5b6000601f19601f8301169050919050565b6135d38161339b565b81146135de57600080fd5b50565b6135ea816133ad565b81146135f557600080fd5b50565b613601816133b9565b811461360c57600080fd5b50565b61361881613405565b811461362357600080fd5b5056fea26469706673582212201f8a475faecbc10d1066dd0905038b6948cb4834a6a2b816de3888d52c88732b64736f6c63430008000033",
  "immutableReferences": {},
  "source": "// SPDX-License-Identifier: MIT\r\npragma solidity ^0.8.0;\r\n\r\nimport \"@openzeppelin/contracts/token/ERC721/ERC721.sol\";\r\nimport \"@openzeppelin/contracts/utils/Counters.sol\";\r\nimport \"@openzeppelin/contracts/access/Ownable.sol\";\r\nimport \"@openzeppelin/contracts/token/ERC721/extensions/ERC721URIStorage.sol\";\r\n\r\ncontract PixelMatrix is ERC721URIStorage, Ownable {\r\n  using Counters for Counters.Counter;\r\n  Counters.Counter private _tokenIds;\r\n  \r\n  // uint256 private solved = 0;\r\n  uint256 private price = 0.03 ether;\r\n  uint256 private maxMintAmount = 10;\r\n  uint256 private puzzleMaxSupply = 17776;\r\n  uint256 private totalMaxSupply = 22220;\r\n  string private baseURI = \"\";\r\n  mapping (address => uint256[]) private addrToSolved;\r\n\r\n\r\n  constructor() ERC721(\"Pixel Matrix\", \"PMX\") {}\r\n\r\n  function mint(address recipient, uint256 mintAmount)\r\n    public \r\n    payable\r\n    returns(uint256)\r\n  {\r\n    require(mintAmount <= maxMintAmount, \"Max-mint = 10\");\r\n    require(msg.value >= price * mintAmount, \"Not enough ETH sent; check price!\");\r\n    require(_tokenIds.current() + mintAmount <= puzzleMaxSupply, \"Not enough tokens left!\");\r\n\r\n    uint256 newItemId;\r\n    \r\n    for (uint256 i = 1; i <= mintAmount; i++) {\r\n      _tokenIds.increment();\r\n      newItemId = _tokenIds.current();\r\n      _mint(recipient, newItemId);\r\n      _setTokenURI(newItemId, baseURI);\r\n    }\r\n\r\n    return newItemId;\r\n  }\r\n  \r\n  // function morphArt(uint256[] memory tokenIDs)\r\n  //   public\r\n  // {\r\n  //   // require(!paused, \"Contract is paused!\");\r\n  //   // require(tokenIDs.length > 0, \"No token id specified!\");\r\n  //   require(tokenIDs.length == 4, \"Can only burn 4 tokens at once!\");\r\n    \r\n  //   for (uint256 i = 0; i < 9; i++) {\r\n  //     require(ownerOf(tokenIDs[i]) == msg.sender, \"You don't own all tokens\");\r\n  //   }\r\n    \r\n  //   // create a mechanism to check that all the tokens are for a particular piece\r\n  //   // --\r\n    \r\n  //   uint256 onePiece = tokenIDs[1];\r\n    \r\n  //   for (uint256 i = 0; i < 9; i++) {\r\n  //     _burn(tokenIDs[i]);\r\n  //   }\r\n    \r\n  //   solved++;\r\n  //   uint256 newSolvedID = puzzleMaxSupply + solved;\r\n  //   _mint(msg.sender, newSolvedID);\r\n  //   // _setTokenURI(newSolvedID, solvedBaseURI);\r\n  //   // addrToSolved[msg.sender].push(onePiece);\r\n  // }\r\n\r\n  function updateTokens(uint256[] memory tokenIDs, string[] memory tokenURIs)\r\n    public\r\n    onlyOwner\r\n  {\r\n    // require(!paused, \"Contract is paused!\");\r\n    require(tokenIDs.length == tokenURIs.length);\r\n\r\n    for (uint256 i = 0; i < tokenIDs.length; i++) {\r\n      _setTokenURI(tokenIDs[i], tokenURIs[i]);\r\n    }\r\n  }\r\n  \r\n  function withdraw()\r\n    public\r\n    onlyOwner\r\n  {\r\n    payable(msg.sender).transfer(address(this).balance);\r\n  }\r\n  \r\n  function getPrice()\r\n    public\r\n    view\r\n    returns(uint256)\r\n  {\r\n    return price;\r\n  }\r\n\r\n}",
  "sourcePath": "C:\\Users\\Oyeto\\Documents\\programming\\Projects\\web-apps\\Pixel Matrix\\contracts\\PixelMatrix.sol",
  "compiler": {
    "name": "solc",
    "version": "0.8.0+commit.c7dfd78e.Emscripten.clang"
  },
  "schemaVersion": "3.4.3",
  "updatedAt": "2021-12-15T14:51:16.096Z",
  "networkType": "ethereum",
  "devdoc": {
    "kind": "dev",
    "methods": {
      "approve(address,uint256)": {
        "details": "See {IERC721-approve}."
      },
      "balanceOf(address)": {
        "details": "See {IERC721-balanceOf}."
      },
      "getApproved(uint256)": {
        "details": "See {IERC721-getApproved}."
      },
      "isApprovedForAll(address,address)": {
        "details": "See {IERC721-isApprovedForAll}."
      },
      "name()": {
        "details": "See {IERC721Metadata-name}."
      },
      "owner()": {
        "details": "Returns the address of the current owner."
      },
      "ownerOf(uint256)": {
        "details": "See {IERC721-ownerOf}."
      },
      "renounceOwnership()": {
        "details": "Leaves the contract without owner. It will not be possible to call `onlyOwner` functions anymore. Can only be called by the current owner. NOTE: Renouncing ownership will leave the contract without an owner, thereby removing any functionality that is only available to the owner."
      },
      "safeTransferFrom(address,address,uint256)": {
        "details": "See {IERC721-safeTransferFrom}."
      },
      "safeTransferFrom(address,address,uint256,bytes)": {
        "details": "See {IERC721-safeTransferFrom}."
      },
      "setApprovalForAll(address,bool)": {
        "details": "See {IERC721-setApprovalForAll}."
      },
      "supportsInterface(bytes4)": {
        "details": "See {IERC165-supportsInterface}."
      },
      "symbol()": {
        "details": "See {IERC721Metadata-symbol}."
      },
      "tokenURI(uint256)": {
        "details": "See {IERC721Metadata-tokenURI}."
      },
      "transferFrom(address,address,uint256)": {
        "details": "See {IERC721-transferFrom}."
      },
      "transferOwnership(address)": {
        "details": "Transfers ownership of the contract to a new account (`newOwner`). Can only be called by the current owner."
      }
    },
    "version": 1
  },
  "userdoc": {
    "kind": "user",
    "methods": {},
    "version": 1
  }
}