{
  "contractName": "PixelPizzles",
  "abi": [
    {
      "inputs": [],
      "stateMutability": "nonpayable",
      "type": "constructor"
    },
    {
      "anonymous": false,
      "inputs": [
        {
          "indexed": true,
          "internalType": "address",
          "name": "owner",
          "type": "address"
        },
        {
          "indexed": true,
          "internalType": "address",
          "name": "approved",
          "type": "address"
        },
        {
          "indexed": true,
          "internalType": "uint256",
          "name": "tokenId",
          "type": "uint256"
        }
      ],
      "name": "Approval",
      "type": "event"
    },
    {
      "anonymous": false,
      "inputs": [
        {
          "indexed": true,
          "internalType": "address",
          "name": "owner",
          "type": "address"
        },
        {
          "indexed": true,
          "internalType": "address",
          "name": "operator",
          "type": "address"
        },
        {
          "indexed": false,
          "internalType": "bool",
          "name": "approved",
          "type": "bool"
        }
      ],
      "name": "ApprovalForAll",
      "type": "event"
    },
    {
      "anonymous": false,
      "inputs": [
        {
          "indexed": true,
          "internalType": "address",
          "name": "from",
          "type": "address"
        },
        {
          "indexed": true,
          "internalType": "address",
          "name": "to",
          "type": "address"
        },
        {
          "indexed": true,
          "internalType": "uint256",
          "name": "tokenId",
          "type": "uint256"
        }
      ],
      "name": "Transfer",
      "type": "event"
    },
    {
      "inputs": [
        {
          "internalType": "address",
          "name": "to",
          "type": "address"
        },
        {
          "internalType": "uint256",
          "name": "tokenId",
          "type": "uint256"
        }
      ],
      "name": "approve",
      "outputs": [],
      "stateMutability": "nonpayable",
      "type": "function"
    },
    {
      "inputs": [
        {
          "internalType": "address",
          "name": "owner",
          "type": "address"
        }
      ],
      "name": "balanceOf",
      "outputs": [
        {
          "internalType": "uint256",
          "name": "",
          "type": "uint256"
        }
      ],
      "stateMutability": "view",
      "type": "function",
      "constant": true
    },
    {
      "inputs": [
        {
          "internalType": "uint256",
          "name": "tokenId",
          "type": "uint256"
        }
      ],
      "name": "getApproved",
      "outputs": [
        {
          "internalType": "address",
          "name": "",
          "type": "address"
        }
      ],
      "stateMutability": "view",
      "type": "function",
      "constant": true
    },
    {
      "inputs": [
        {
          "internalType": "address",
          "name": "owner",
          "type": "address"
        },
        {
          "internalType": "address",
          "name": "operator",
          "type": "address"
        }
      ],
      "name": "isApprovedForAll",
      "outputs": [
        {
          "internalType": "bool",
          "name": "",
          "type": "bool"
        }
      ],
      "stateMutability": "view",
      "type": "function",
      "constant": true
    },
    {
      "inputs": [],
      "name": "name",
      "outputs": [
        {
          "internalType": "string",
          "name": "",
          "type": "string"
        }
      ],
      "stateMutability": "view",
      "type": "function",
      "constant": true
    },
    {
      "inputs": [
        {
          "internalType": "uint256",
          "name": "tokenId",
          "type": "uint256"
        }
      ],
      "name": "ownerOf",
      "outputs": [
        {
          "internalType": "address",
          "name": "",
          "type": "address"
        }
      ],
      "stateMutability": "view",
      "type": "function",
      "constant": true
    },
    {
      "inputs": [
        {
          "internalType": "address",
          "name": "from",
          "type": "address"
        },
        {
          "internalType": "address",
          "name": "to",
          "type": "address"
        },
        {
          "internalType": "uint256",
          "name": "tokenId",
          "type": "uint256"
        }
      ],
      "name": "safeTransferFrom",
      "outputs": [],
      "stateMutability": "nonpayable",
      "type": "function"
    },
    {
      "inputs": [
        {
          "internalType": "address",
          "name": "from",
          "type": "address"
        },
        {
          "internalType": "address",
          "name": "to",
          "type": "address"
        },
        {
          "internalType": "uint256",
          "name": "tokenId",
          "type": "uint256"
        },
        {
          "internalType": "bytes",
          "name": "_data",
          "type": "bytes"
        }
      ],
      "name": "safeTransferFrom",
      "outputs": [],
      "stateMutability": "nonpayable",
      "type": "function"
    },
    {
      "inputs": [
        {
          "internalType": "address",
          "name": "operator",
          "type": "address"
        },
        {
          "internalType": "bool",
          "name": "approved",
          "type": "bool"
        }
      ],
      "name": "setApprovalForAll",
      "outputs": [],
      "stateMutability": "nonpayable",
      "type": "function"
    },
    {
      "inputs": [
        {
          "internalType": "bytes4",
          "name": "interfaceId",
          "type": "bytes4"
        }
      ],
      "name": "supportsInterface",
      "outputs": [
        {
          "internalType": "bool",
          "name": "",
          "type": "bool"
        }
      ],
      "stateMutability": "view",
      "type": "function",
      "constant": true
    },
    {
      "inputs": [],
      "name": "symbol",
      "outputs": [
        {
          "internalType": "string",
          "name": "",
          "type": "string"
        }
      ],
      "stateMutability": "view",
      "type": "function",
      "constant": true
    },
    {
      "inputs": [
        {
          "internalType": "uint256",
          "name": "tokenId",
          "type": "uint256"
        }
      ],
      "name": "tokenURI",
      "outputs": [
        {
          "internalType": "string",
          "name": "",
          "type": "string"
        }
      ],
      "stateMutability": "view",
      "type": "function",
      "constant": true
    },
    {
      "inputs": [
        {
          "internalType": "address",
          "name": "from",
          "type": "address"
        },
        {
          "internalType": "address",
          "name": "to",
          "type": "address"
        },
        {
          "internalType": "uint256",
          "name": "tokenId",
          "type": "uint256"
        }
      ],
      "name": "transferFrom",
      "outputs": [],
      "stateMutability": "nonpayable",
      "type": "function"
    },
    {
      "inputs": [
        {
          "internalType": "address",
          "name": "recipient",
          "type": "address"
        },
        {
          "internalType": "uint256",
          "name": "mintAmount",
          "type": "uint256"
        }
      ],
      "name": "mint",
      "outputs": [
        {
          "internalType": "uint256",
          "name": "",
          "type": "uint256"
        }
      ],
      "stateMutability": "payable",
      "type": "function",
      "payable": true
    },
    {
      "inputs": [
        {
          "internalType": "address",
          "name": "to",
          "type": "address"
        },
        {
          "internalType": "uint256",
          "name": "tokenID",
          "type": "uint256"
        }
      ],
      "name": "transferToken",
      "outputs": [],
      "stateMutability": "nonpayable",
      "type": "function"
    },
    {
      "inputs": [
        {
          "internalType": "uint256[]",
          "name": "tokenIDs",
          "type": "uint256[]"
        }
      ],
      "name": "burnTokens",
      "outputs": [],
      "stateMutability": "nonpayable",
      "type": "function"
    },
    {
      "inputs": [
        {
          "internalType": "uint256[]",
          "name": "tokenIDs",
          "type": "uint256[]"
        },
        {
          "internalType": "string[]",
          "name": "tokenURIs",
          "type": "string[]"
        }
      ],
      "name": "updateTokens",
      "outputs": [],
      "stateMutability": "nonpayable",
      "type": "function"
    },
    {
      "inputs": [],
      "name": "withdraw",
      "outputs": [],
      "stateMutability": "nonpayable",
      "type": "function"
    },
    {
      "inputs": [],
      "name": "getPaused",
      "outputs": [
        {
          "internalType": "bool",
          "name": "",
          "type": "bool"
        }
      ],
      "stateMutability": "view",
      "type": "function",
      "constant": true
    },
    {
      "inputs": [
        {
          "internalType": "bool",
          "name": "value",
          "type": "bool"
        }
      ],
      "name": "setPaused",
      "outputs": [],
      "stateMutability": "nonpayable",
      "type": "function"
    },
    {
      "inputs": [],
      "name": "getPrice",
      "outputs": [
        {
          "internalType": "uint256",
          "name": "",
          "type": "uint256"
        }
      ],
      "stateMutability": "view",
      "type": "function",
      "constant": true
    },
    {
      "inputs": [
        {
          "internalType": "uint256",
          "name": "_price",
          "type": "uint256"
        }
      ],
      "name": "setPrice",
      "outputs": [],
      "stateMutability": "nonpayable",
      "type": "function"
    },
    {
      "inputs": [],
      "name": "getPuzzleBaseUri",
      "outputs": [
        {
          "internalType": "string",
          "name": "",
          "type": "string"
        }
      ],
      "stateMutability": "view",
      "type": "function",
      "constant": true
    },
    {
      "inputs": [
        {
          "internalType": "string",
          "name": "uri",
          "type": "string"
        }
      ],
      "name": "setPuzzleBaseUri",
      "outputs": [],
      "stateMutability": "nonpayable",
      "type": "function"
    },
    {
      "inputs": [],
      "name": "getSolvedBaseUri",
      "outputs": [
        {
          "internalType": "string",
          "name": "",
          "type": "string"
        }
      ],
      "stateMutability": "view",
      "type": "function",
      "constant": true
    },
    {
      "inputs": [
        {
          "internalType": "string",
          "name": "uri",
          "type": "string"
        }
      ],
      "name": "setSolvedBaseUri",
      "outputs": [],
      "stateMutability": "nonpayable",
      "type": "function"
    }
  ],
  "bytecode": "0x60806040526000600860146101000a81548160ff0219169083151502179055506000600955662386f26fc10000600a55600a600b5561270f600c55612b66600d5560405180602001604052806000815250600e90805190602001906200006792919062000185565b5060405180602001604052806000815250600f90805190602001906200008f92919062000185565b503480156200009d57600080fd5b506040518060400160405280600d81526020017f506978656c2050697a7a6c6573000000000000000000000000000000000000008152506040518060400160405280600381526020017f50505a000000000000000000000000000000000000000000000000000000000081525081600090805190602001906200012292919062000185565b5080600190805190602001906200013b92919062000185565b50505033600860006101000a81548173ffffffffffffffffffffffffffffffffffffffff021916908373ffffffffffffffffffffffffffffffffffffffff1602179055506200029a565b828054620001939062000235565b90600052602060002090601f016020900481019282620001b7576000855562000203565b82601f10620001d257805160ff191683800117855562000203565b8280016001018555821562000203579182015b8281111562000202578251825591602001919060010190620001e5565b5b50905062000212919062000216565b5090565b5b808211156200023157600081600090555060010162000217565b5090565b600060028204905060018216806200024e57607f821691505b602082108114156200026557620002646200026b565b5b50919050565b7f4e487b7100000000000000000000000000000000000000000000000000000000600052602260045260246000fd5b613fbb80620002aa6000396000f3fe6080604052600436106101815760003560e01c80636805b84b116100d1578063a22cb4651161008a578063b88d4fde11610064578063b88d4fde1461055d578063c87b56dd14610586578063d2844f2a146105c3578063e985e9c5146105ec57610181565b8063a22cb465146104de578063b294325c14610507578063b37434e51461053257610181565b80636805b84b146103ce57806370a08231146103f957806391b7f5ed1461043657806395d89b411461045f57806398d5fdca1461048a578063a1bf8fd1146104b557610181565b80631a55c97b1161013e57806340c10f191161011857806340c10f191461030f57806342842e0e1461033f5780636352211e1461036857806367a53173146103a557610181565b80631a55c97b146102a657806323b872dd146102cf5780633ccfd60b146102f857610181565b806301ffc9a71461018657806306fdde03146101c3578063081812fc146101ee578063095ea7b31461022b5780631072cbea1461025457806316c38b3c1461027d575b600080fd5b34801561019257600080fd5b506101ad60048036038101906101a89190612d96565b610629565b6040516101ba9190613781565b60405180910390f35b3480156101cf57600080fd5b506101d861070b565b6040516101e5919061379c565b60405180910390f35b3480156101fa57600080fd5b5061021560048036038101906102109190612e29565b61079d565b604051610222919061371a565b60405180910390f35b34801561023757600080fd5b50610252600480360381019061024d9190612c84565b610822565b005b34801561026057600080fd5b5061027b60048036038101906102769190612c84565b61093a565b005b34801561028957600080fd5b506102a4600480360381019061029f9190612d6d565b610999565b005b3480156102b257600080fd5b506102cd60048036038101906102c89190612d01565b610a30565b005b3480156102db57600080fd5b506102f660048036038101906102f19190612b7e565b610b96565b005b34801561030457600080fd5b5061030d610bf6565b005b61032960048036038101906103249190612c84565b610c99565b6040516103369190613a9e565b60405180910390f35b34801561034b57600080fd5b5061036660048036038101906103619190612b7e565b610ec7565b005b34801561037457600080fd5b5061038f600480360381019061038a9190612e29565b610ee7565b60405161039c919061371a565b60405180910390f35b3480156103b157600080fd5b506103cc60048036038101906103c79190612cc0565b610f99565b005b3480156103da57600080fd5b506103e361132b565b6040516103f09190613781565b60405180910390f35b34801561040557600080fd5b50610420600480360381019061041b9190612b19565b611342565b60405161042d9190613a9e565b60405180910390f35b34801561044257600080fd5b5061045d60048036038101906104589190612e29565b6113fa565b005b34801561046b57600080fd5b5061047461145e565b604051610481919061379c565b60405180910390f35b34801561049657600080fd5b5061049f6114f0565b6040516104ac9190613a9e565b60405180910390f35b3480156104c157600080fd5b506104dc60048036038101906104d79190612de8565b6114fa565b005b3480156104ea57600080fd5b5061050560048036038101906105009190612c48565b61156e565b005b34801561051357600080fd5b5061051c6116ef565b604051610529919061379c565b60405180910390f35b34801561053e57600080fd5b50610547611781565b604051610554919061379c565b60405180910390f35b34801561056957600080fd5b50610584600480360381019061057f9190612bcd565b611813565b005b34801561059257600080fd5b506105ad60048036038101906105a89190612e29565b611875565b6040516105ba919061379c565b60405180910390f35b3480156105cf57600080fd5b506105ea60048036038101906105e59190612de8565b6119c7565b005b3480156105f857600080fd5b50610613600480360381019061060e9190612b42565b611a3b565b6040516106209190613781565b60405180910390f35b60007f80ac58cd000000000000000000000000000000000000000000000000000000007bffffffffffffffffffffffffffffffffffffffffffffffffffffffff1916827bffffffffffffffffffffffffffffffffffffffffffffffffffffffff191614806106f457507f5b5e139f000000000000000000000000000000000000000000000000000000007bffffffffffffffffffffffffffffffffffffffffffffffffffffffff1916827bffffffffffffffffffffffffffffffffffffffffffffffffffffffff1916145b80610704575061070382611acf565b5b9050919050565b60606000805461071a90613db0565b80601f016020809104026020016040519081016040528092919081815260200182805461074690613db0565b80156107935780601f1061076857610100808354040283529160200191610793565b820191906000526020600020905b81548152906001019060200180831161077657829003601f168201915b5050505050905090565b60006107a882611b39565b6107e7576040517f08c379a00000000000000000000000000000000000000000000000000000000081526004016107de9061397e565b60405180910390fd5b6004600083815260200190815260200160002060009054906101000a900473ffffffffffffffffffffffffffffffffffffffff169050919050565b600061082d82610ee7565b90508073ffffffffffffffffffffffffffffffffffffffff168373ffffffffffffffffffffffffffffffffffffffff16141561089e576040517f08c379a0000000000000000000000000000000000000000000000000000000008152600401610895906139de565b60405180910390fd5b8073ffffffffffffffffffffffffffffffffffffffff166108bd611ba5565b73ffffffffffffffffffffffffffffffffffffffff1614806108ec57506108eb816108e6611ba5565b611a3b565b5b61092b576040517f08c379a0000000000000000000000000000000000000000000000000000000008152600401610922906138be565b60405180910390fd5b6109358383611bad565b505050565b600860149054906101000a900460ff161561098a576040517f08c379a00000000000000000000000000000000000000000000000000000000081526004016109819061381e565b60405180910390fd5b610995338383610ec7565b5050565b600860009054906101000a900473ffffffffffffffffffffffffffffffffffffffff1673ffffffffffffffffffffffffffffffffffffffff163373ffffffffffffffffffffffffffffffffffffffff16146109f357600080fd5b600860149054906101000a900460ff1615158115151415610a1357600080fd5b80600860146101000a81548160ff02191690831515021790555050565b600860009054906101000a900473ffffffffffffffffffffffffffffffffffffffff1673ffffffffffffffffffffffffffffffffffffffff163373ffffffffffffffffffffffffffffffffffffffff1614610a8a57600080fd5b600860149054906101000a900460ff1615610ada576040517f08c379a0000000000000000000000000000000000000000000000000000000008152600401610ad19061381e565b60405180910390fd5b8051825114610ae857600080fd5b60005b8251811015610b9157610b7e838281518110610b30577f4e487b7100000000000000000000000000000000000000000000000000000000600052603260045260246000fd5b6020026020010151838381518110610b71577f4e487b7100000000000000000000000000000000000000000000000000000000600052603260045260246000fd5b6020026020010151611c66565b8080610b8990613de2565b915050610aeb565b505050565b610ba7610ba1611ba5565b82611cda565b610be6576040517f08c379a0000000000000000000000000000000000000000000000000000000008152600401610bdd906139fe565b60405180910390fd5b610bf1838383611db8565b505050565b600860009054906101000a900473ffffffffffffffffffffffffffffffffffffffff1673ffffffffffffffffffffffffffffffffffffffff163373ffffffffffffffffffffffffffffffffffffffff1614610c5057600080fd5b3373ffffffffffffffffffffffffffffffffffffffff166108fc479081150290604051600060405180830381858888f19350505050158015610c96573d6000803e3d6000fd5b50565b6000600860149054906101000a900460ff1615610ceb576040517f08c379a0000000000000000000000000000000000000000000000000000000008152600401610ce29061381e565b60405180910390fd5b60008211610cf857600080fd5b600b54821115610d3d576040517f08c379a0000000000000000000000000000000000000000000000000000000008152600401610d3490613a1e565b60405180910390fd5b81600a54610d4b9190613c6c565b341015610d8d576040517f08c379a0000000000000000000000000000000000000000000000000000000008152600401610d8490613a5e565b60405180910390fd5b600c5482610d9b6007612014565b610da59190613be5565b1115610de6576040517f08c379a0000000000000000000000000000000000000000000000000000000008152600401610ddd906137de565b60405180910390fd5b600080600190505b838111610ebc57610dff6007612022565b610e096007612014565b9150610e158583612038565b610ea982600e8054610e2690613db0565b80601f0160208091040260200160405190810160405280929190818152602001828054610e5290613db0565b8015610e9f5780601f10610e7457610100808354040283529160200191610e9f565b820191906000526020600020905b815481529060010190602001808311610e8257829003601f168201915b5050505050611c66565b8080610eb490613de2565b915050610dee565b508091505092915050565b610ee283838360405180602001604052806000815250611813565b505050565b6000806002600084815260200190815260200160002060009054906101000a900473ffffffffffffffffffffffffffffffffffffffff169050600073ffffffffffffffffffffffffffffffffffffffff168173ffffffffffffffffffffffffffffffffffffffff161415610f90576040517f08c379a0000000000000000000000000000000000000000000000000000000008152600401610f87906138fe565b60405180910390fd5b80915050919050565b600860149054906101000a900460ff1615610fe9576040517f08c379a0000000000000000000000000000000000000000000000000000000008152600401610fe09061381e565b60405180910390fd5b600081511161102d576040517f08c379a000000000000000000000000000000000000000000000000000000000815260040161102490613a7e565b60405180910390fd5b6009815114611071576040517f08c379a000000000000000000000000000000000000000000000000000000000815260040161106890613a3e565b60405180910390fd5b60005b6009811015611146573373ffffffffffffffffffffffffffffffffffffffff166110dd8383815181106110d0577f4e487b7100000000000000000000000000000000000000000000000000000000600052603260045260246000fd5b6020026020010151610ee7565b73ffffffffffffffffffffffffffffffffffffffff1614611133576040517f08c379a000000000000000000000000000000000000000000000000000000000815260040161112a9061389e565b60405180910390fd5b808061113e90613de2565b915050611074565b50600081600181518110611183577f4e487b7100000000000000000000000000000000000000000000000000000000600052603260045260246000fd5b6020026020010151905060005b60098110156111f5576111e28382815181106111d5577f4e487b7100000000000000000000000000000000000000000000000000000000600052603260045260246000fd5b6020026020010151612206565b80806111ed90613de2565b915050611190565b506009600081548092919061120990613de2565b91905055506000600954600c546112209190613be5565b905061122c3382612038565b6112c081600f805461123d90613db0565b80601f016020809104026020016040519081016040528092919081815260200182805461126990613db0565b80156112b65780601f1061128b576101008083540402835291602001916112b6565b820191906000526020600020905b81548152906001019060200180831161129957829003601f168201915b5050505050611c66565b601060003373ffffffffffffffffffffffffffffffffffffffff1673ffffffffffffffffffffffffffffffffffffffff168152602001908152602001600020829080600181540180825580915050600190039060005260206000200160009091909190915055505050565b6000600860149054906101000a900460ff16905090565b60008073ffffffffffffffffffffffffffffffffffffffff168273ffffffffffffffffffffffffffffffffffffffff1614156113b3576040517f08c379a00000000000000000000000000000000000000000000000000000000081526004016113aa906138de565b60405180910390fd5b600360008373ffffffffffffffffffffffffffffffffffffffff1673ffffffffffffffffffffffffffffffffffffffff168152602001908152602001600020549050919050565b600860009054906101000a900473ffffffffffffffffffffffffffffffffffffffff1673ffffffffffffffffffffffffffffffffffffffff163373ffffffffffffffffffffffffffffffffffffffff161461145457600080fd5b80600a8190555050565b60606001805461146d90613db0565b80601f016020809104026020016040519081016040528092919081815260200182805461149990613db0565b80156114e65780601f106114bb576101008083540402835291602001916114e6565b820191906000526020600020905b8154815290600101906020018083116114c957829003601f168201915b5050505050905090565b6000600a54905090565b600860009054906101000a900473ffffffffffffffffffffffffffffffffffffffff1673ffffffffffffffffffffffffffffffffffffffff163373ffffffffffffffffffffffffffffffffffffffff161461155457600080fd5b80600e908051906020019061156a9291906127e0565b5050565b611576611ba5565b73ffffffffffffffffffffffffffffffffffffffff168273ffffffffffffffffffffffffffffffffffffffff1614156115e4576040517f08c379a00000000000000000000000000000000000000000000000000000000081526004016115db9061385e565b60405180910390fd5b80600560006115f1611ba5565b73ffffffffffffffffffffffffffffffffffffffff1673ffffffffffffffffffffffffffffffffffffffff16815260200190815260200160002060008473ffffffffffffffffffffffffffffffffffffffff1673ffffffffffffffffffffffffffffffffffffffff16815260200190815260200160002060006101000a81548160ff0219169083151502179055508173ffffffffffffffffffffffffffffffffffffffff1661169e611ba5565b73ffffffffffffffffffffffffffffffffffffffff167f17307eab39ab6107e8899845ad3d59bd9653f200f220920489ca2b5937696c31836040516116e39190613781565b60405180910390a35050565b6060600e80546116fe90613db0565b80601f016020809104026020016040519081016040528092919081815260200182805461172a90613db0565b80156117775780601f1061174c57610100808354040283529160200191611777565b820191906000526020600020905b81548152906001019060200180831161175a57829003601f168201915b5050505050905090565b6060600f805461179090613db0565b80601f01602080910402602001604051908101604052809291908181526020018280546117bc90613db0565b80156118095780601f106117de57610100808354040283529160200191611809565b820191906000526020600020905b8154815290600101906020018083116117ec57829003601f168201915b5050505050905090565b61182461181e611ba5565b83611cda565b611863576040517f08c379a000000000000000000000000000000000000000000000000000000000815260040161185a906139fe565b60405180910390fd5b61186f84848484612259565b50505050565b606061188082611b39565b6118bf576040517f08c379a00000000000000000000000000000000000000000000000000000000081526004016118b69061395e565b60405180910390fd5b60006006600084815260200190815260200160002080546118df90613db0565b80601f016020809104026020016040519081016040528092919081815260200182805461190b90613db0565b80156119585780601f1061192d57610100808354040283529160200191611958565b820191906000526020600020905b81548152906001019060200180831161193b57829003601f168201915b5050505050905060006119696122b5565b905060008151141561197f5781925050506119c2565b6000825111156119b457808260405160200161199c9291906136f6565b604051602081830303815290604052925050506119c2565b6119bd846122cc565b925050505b919050565b600860009054906101000a900473ffffffffffffffffffffffffffffffffffffffff1673ffffffffffffffffffffffffffffffffffffffff163373ffffffffffffffffffffffffffffffffffffffff1614611a2157600080fd5b80600f9080519060200190611a379291906127e0565b5050565b6000600560008473ffffffffffffffffffffffffffffffffffffffff1673ffffffffffffffffffffffffffffffffffffffff16815260200190815260200160002060008373ffffffffffffffffffffffffffffffffffffffff1673ffffffffffffffffffffffffffffffffffffffff16815260200190815260200160002060009054906101000a900460ff16905092915050565b60007f01ffc9a7000000000000000000000000000000000000000000000000000000007bffffffffffffffffffffffffffffffffffffffffffffffffffffffff1916827bffffffffffffffffffffffffffffffffffffffffffffffffffffffff1916149050919050565b60008073ffffffffffffffffffffffffffffffffffffffff166002600084815260200190815260200160002060009054906101000a900473ffffffffffffffffffffffffffffffffffffffff1673ffffffffffffffffffffffffffffffffffffffff1614159050919050565b600033905090565b816004600083815260200190815260200160002060006101000a81548173ffffffffffffffffffffffffffffffffffffffff021916908373ffffffffffffffffffffffffffffffffffffffff160217905550808273ffffffffffffffffffffffffffffffffffffffff16611c2083610ee7565b73ffffffffffffffffffffffffffffffffffffffff167f8c5be1e5ebec7d5bd14f71427d1e84f3dd0314c0f7b2291e5b200ac8c7c3b92560405160405180910390a45050565b611c6f82611b39565b611cae576040517f08c379a0000000000000000000000000000000000000000000000000000000008152600401611ca59061391e565b60405180910390fd5b80600660008481526020019081526020016000209080519060200190611cd59291906127e0565b505050565b6000611ce582611b39565b611d24576040517f08c379a0000000000000000000000000000000000000000000000000000000008152600401611d1b9061387e565b60405180910390fd5b6000611d2f83610ee7565b90508073ffffffffffffffffffffffffffffffffffffffff168473ffffffffffffffffffffffffffffffffffffffff161480611d9e57508373ffffffffffffffffffffffffffffffffffffffff16611d868461079d565b73ffffffffffffffffffffffffffffffffffffffff16145b80611daf5750611dae8185611a3b565b5b91505092915050565b8273ffffffffffffffffffffffffffffffffffffffff16611dd882610ee7565b73ffffffffffffffffffffffffffffffffffffffff1614611e2e576040517f08c379a0000000000000000000000000000000000000000000000000000000008152600401611e259061399e565b60405180910390fd5b600073ffffffffffffffffffffffffffffffffffffffff168273ffffffffffffffffffffffffffffffffffffffff161415611e9e576040517f08c379a0000000000000000000000000000000000000000000000000000000008152600401611e959061383e565b60405180910390fd5b611ea9838383612373565b611eb4600082611bad565b6001600360008573ffffffffffffffffffffffffffffffffffffffff1673ffffffffffffffffffffffffffffffffffffffff1681526020019081526020016000206000828254611f049190613cc6565b925050819055506001600360008473ffffffffffffffffffffffffffffffffffffffff1673ffffffffffffffffffffffffffffffffffffffff1681526020019081526020016000206000828254611f5b9190613be5565b92505081905550816002600083815260200190815260200160002060006101000a81548173ffffffffffffffffffffffffffffffffffffffff021916908373ffffffffffffffffffffffffffffffffffffffff160217905550808273ffffffffffffffffffffffffffffffffffffffff168473ffffffffffffffffffffffffffffffffffffffff167fddf252ad1be2c89b69c2b068fc378daa952ba7f163c4a11628f55a4df523b3ef60405160405180910390a4505050565b600081600001549050919050565b6001816000016000828254019250508190555050565b600073ffffffffffffffffffffffffffffffffffffffff168273ffffffffffffffffffffffffffffffffffffffff1614156120a8576040517f08c379a000000000000000000000000000000000000000000000000000000000815260040161209f9061393e565b60405180910390fd5b6120b181611b39565b156120f1576040517f08c379a00000000000000000000000000000000000000000000000000000000081526004016120e8906137fe565b60405180910390fd5b6120fd60008383612373565b6001600360008473ffffffffffffffffffffffffffffffffffffffff1673ffffffffffffffffffffffffffffffffffffffff168152602001908152602001600020600082825461214d9190613be5565b92505081905550816002600083815260200190815260200160002060006101000a81548173ffffffffffffffffffffffffffffffffffffffff021916908373ffffffffffffffffffffffffffffffffffffffff160217905550808273ffffffffffffffffffffffffffffffffffffffff16600073ffffffffffffffffffffffffffffffffffffffff167fddf252ad1be2c89b69c2b068fc378daa952ba7f163c4a11628f55a4df523b3ef60405160405180910390a45050565b61220f81612378565b600060066000838152602001908152602001600020805461222f90613db0565b905014612256576006600082815260200190815260200160002060006122559190612866565b5b50565b612264848484611db8565b61227084848484612489565b6122af576040517f08c379a00000000000000000000000000000000000000000000000000000000081526004016122a6906137be565b60405180910390fd5b50505050565b606060405180602001604052806000815250905090565b60606122d782611b39565b612316576040517f08c379a000000000000000000000000000000000000000000000000000000000815260040161230d906139be565b60405180910390fd5b60006123206122b5565b90506000815111612340576040518060200160405280600081525061236b565b8061234a84612620565b60405160200161235b9291906136f6565b6040516020818303038152906040525b915050919050565b505050565b600061238382610ee7565b905061239181600084612373565b61239c600083611bad565b6001600360008373ffffffffffffffffffffffffffffffffffffffff1673ffffffffffffffffffffffffffffffffffffffff16815260200190815260200160002060008282546123ec9190613cc6565b925050819055506002600083815260200190815260200160002060006101000a81549073ffffffffffffffffffffffffffffffffffffffff021916905581600073ffffffffffffffffffffffffffffffffffffffff168273ffffffffffffffffffffffffffffffffffffffff167fddf252ad1be2c89b69c2b068fc378daa952ba7f163c4a11628f55a4df523b3ef60405160405180910390a45050565b60006124aa8473ffffffffffffffffffffffffffffffffffffffff166127cd565b15612613578373ffffffffffffffffffffffffffffffffffffffff1663150b7a026124d3611ba5565b8786866040518563ffffffff1660e01b81526004016124f59493929190613735565b602060405180830381600087803b15801561250f57600080fd5b505af192505050801561254057506040513d601f19601f8201168201806040525081019061253d9190612dbf565b60015b6125c3573d8060008114612570576040519150601f19603f3d011682016040523d82523d6000602084013e612575565b606091505b506000815114156125bb576040517f08c379a00000000000000000000000000000000000000000000000000000000081526004016125b2906137be565b60405180910390fd5b805181602001fd5b63150b7a0260e01b7bffffffffffffffffffffffffffffffffffffffffffffffffffffffff1916817bffffffffffffffffffffffffffffffffffffffffffffffffffffffff191614915050612618565b600190505b949350505050565b60606000821415612668576040518060400160405280600181526020017f300000000000000000000000000000000000000000000000000000000000000081525090506127c8565b600082905060005b6000821461269a57808061268390613de2565b915050600a826126939190613c3b565b9150612670565b60008167ffffffffffffffff8111156126dc577f4e487b7100000000000000000000000000000000000000000000000000000000600052604160045260246000fd5b6040519080825280601f01601f19166020018201604052801561270e5781602001600182028036833780820191505090505b5090505b600085146127c1576001826127279190613cc6565b9150600a856127369190613e2b565b60306127429190613be5565b60f81b81838151811061277e577f4e487b7100000000000000000000000000000000000000000000000000000000600052603260045260246000fd5b60200101907effffffffffffffffffffffffffffffffffffffffffffffffffffffffffffff1916908160001a905350600a856127ba9190613c3b565b9450612712565b8093505050505b919050565b600080823b905060008111915050919050565b8280546127ec90613db0565b90600052602060002090601f01602090048101928261280e5760008555612855565b82601f1061282757805160ff1916838001178555612855565b82800160010185558215612855579182015b82811115612854578251825591602001919060010190612839565b5b50905061286291906128a6565b5090565b50805461287290613db0565b6000825580601f1061288457506128a3565b601f0160209004906000526020600020908101906128a291906128a6565b5b50565b5b808211156128bf5760008160009055506001016128a7565b5090565b60006128d66128d184613aea565b613ab9565b9050808382526020820190508260005b8581101561291657813585016128fc8882612ada565b8452602084019350602083019250506001810190506128e6565b5050509392505050565b600061293361292e84613b16565b613ab9565b9050808382526020820190508285602086028201111561295257600080fd5b60005b8581101561298257816129688882612b04565b845260208401935060208301925050600181019050612955565b5050509392505050565b600061299f61299a84613b42565b613ab9565b9050828152602081018484840111156129b757600080fd5b6129c2848285613d6e565b509392505050565b60006129dd6129d884613b72565b613ab9565b9050828152602081018484840111156129f557600080fd5b612a00848285613d6e565b509392505050565b600081359050612a1781613f29565b92915050565b600082601f830112612a2e57600080fd5b8135612a3e8482602086016128c3565b91505092915050565b600082601f830112612a5857600080fd5b8135612a68848260208601612920565b91505092915050565b600081359050612a8081613f40565b92915050565b600081359050612a9581613f57565b92915050565b600081519050612aaa81613f57565b92915050565b600082601f830112612ac157600080fd5b8135612ad184826020860161298c565b91505092915050565b600082601f830112612aeb57600080fd5b8135612afb8482602086016129ca565b91505092915050565b600081359050612b1381613f6e565b92915050565b600060208284031215612b2b57600080fd5b6000612b3984828501612a08565b91505092915050565b60008060408385031215612b5557600080fd5b6000612b6385828601612a08565b9250506020612b7485828601612a08565b9150509250929050565b600080600060608486031215612b9357600080fd5b6000612ba186828701612a08565b9350506020612bb286828701612a08565b9250506040612bc386828701612b04565b9150509250925092565b60008060008060808587031215612be357600080fd5b6000612bf187828801612a08565b9450506020612c0287828801612a08565b9350506040612c1387828801612b04565b925050606085013567ffffffffffffffff811115612c3057600080fd5b612c3c87828801612ab0565b91505092959194509250565b60008060408385031215612c5b57600080fd5b6000612c6985828601612a08565b9250506020612c7a85828601612a71565b9150509250929050565b60008060408385031215612c9757600080fd5b6000612ca585828601612a08565b9250506020612cb685828601612b04565b9150509250929050565b600060208284031215612cd257600080fd5b600082013567ffffffffffffffff811115612cec57600080fd5b612cf884828501612a47565b91505092915050565b60008060408385031215612d1457600080fd5b600083013567ffffffffffffffff811115612d2e57600080fd5b612d3a85828601612a47565b925050602083013567ffffffffffffffff811115612d5757600080fd5b612d6385828601612a1d565b9150509250929050565b600060208284031215612d7f57600080fd5b6000612d8d84828501612a71565b91505092915050565b600060208284031215612da857600080fd5b6000612db684828501612a86565b91505092915050565b600060208284031215612dd157600080fd5b6000612ddf84828501612a9b565b91505092915050565b600060208284031215612dfa57600080fd5b600082013567ffffffffffffffff811115612e1457600080fd5b612e2084828501612ada565b91505092915050565b600060208284031215612e3b57600080fd5b6000612e4984828501612b04565b91505092915050565b612e5b81613cfa565b82525050565b612e6a81613d0c565b82525050565b6000612e7b82613ba2565b612e858185613bb8565b9350612e95818560208601613d7d565b612e9e81613f18565b840191505092915050565b6000612eb482613bad565b612ebe8185613bc9565b9350612ece818560208601613d7d565b612ed781613f18565b840191505092915050565b6000612eed82613bad565b612ef78185613bda565b9350612f07818560208601613d7d565b80840191505092915050565b6000612f20603283613bc9565b91507f4552433732313a207472616e7366657220746f206e6f6e20455243373231526560008301527f63656976657220696d706c656d656e74657200000000000000000000000000006020830152604082019050919050565b6000612f86601783613bc9565b91507f4e6f7420656e6f75676820746f6b656e73206c656674210000000000000000006000830152602082019050919050565b6000612fc6601c83613bc9565b91507f4552433732313a20746f6b656e20616c7265616479206d696e746564000000006000830152602082019050919050565b6000613006601383613bc9565b91507f436f6e74726163742069732070617573656421000000000000000000000000006000830152602082019050919050565b6000613046602483613bc9565b91507f4552433732313a207472616e7366657220746f20746865207a65726f2061646460008301527f72657373000000000000000000000000000000000000000000000000000000006020830152604082019050919050565b60006130ac601983613bc9565b91507f4552433732313a20617070726f766520746f2063616c6c6572000000000000006000830152602082019050919050565b60006130ec602c83613bc9565b91507f4552433732313a206f70657261746f7220717565727920666f72206e6f6e657860008301527f697374656e7420746f6b656e00000000000000000000000000000000000000006020830152604082019050919050565b6000613152601883613bc9565b91507f596f7520646f6e2774206f776e20616c6c20746f6b656e7300000000000000006000830152602082019050919050565b6000613192603883613bc9565b91507f4552433732313a20617070726f76652063616c6c6572206973206e6f74206f7760008301527f6e6572206e6f7220617070726f76656420666f7220616c6c00000000000000006020830152604082019050919050565b60006131f8602a83613bc9565b91507f4552433732313a2062616c616e636520717565727920666f7220746865207a6560008301527f726f2061646472657373000000000000000000000000000000000000000000006020830152604082019050919050565b600061325e602983613bc9565b91507f4552433732313a206f776e657220717565727920666f72206e6f6e657869737460008301527f656e7420746f6b656e00000000000000000000000000000000000000000000006020830152604082019050919050565b60006132c4602e83613bc9565b91507f45524337323155524953746f726167653a2055524920736574206f66206e6f6e60008301527f6578697374656e7420746f6b656e0000000000000000000000000000000000006020830152604082019050919050565b600061332a602083613bc9565b91507f4552433732313a206d696e7420746f20746865207a65726f20616464726573736000830152602082019050919050565b600061336a603183613bc9565b91507f45524337323155524953746f726167653a2055524920717565727920666f722060008301527f6e6f6e6578697374656e7420746f6b656e0000000000000000000000000000006020830152604082019050919050565b60006133d0602c83613bc9565b91507f4552433732313a20617070726f76656420717565727920666f72206e6f6e657860008301527f697374656e7420746f6b656e00000000000000000000000000000000000000006020830152604082019050919050565b6000613436602983613bc9565b91507f4552433732313a207472616e73666572206f6620746f6b656e2074686174206960008301527f73206e6f74206f776e00000000000000000000000000000000000000000000006020830152604082019050919050565b600061349c602f83613bc9565b91507f4552433732314d657461646174613a2055524920717565727920666f72206e6f60008301527f6e6578697374656e7420746f6b656e00000000000000000000000000000000006020830152604082019050919050565b6000613502602183613bc9565b91507f4552433732313a20617070726f76616c20746f2063757272656e74206f776e6560008301527f72000000000000000000000000000000000000000000000000000000000000006020830152604082019050919050565b6000613568603183613bc9565b91507f4552433732313a207472616e736665722063616c6c6572206973206e6f74206f60008301527f776e6572206e6f7220617070726f7665640000000000000000000000000000006020830152604082019050919050565b60006135ce601783613bc9565b91507f4d61782d6d696e74207065722074696d652069732031300000000000000000006000830152602082019050919050565b600061360e601f83613bc9565b91507f43616e206f6e6c79206275726e203920746f6b656e73206174206f6e636521006000830152602082019050919050565b600061364e602183613bc9565b91507f4e6f7420656e6f756768204554482073656e743b20636865636b20707269636560008301527f21000000000000000000000000000000000000000000000000000000000000006020830152604082019050919050565b60006136b4601683613bc9565b91507f4e6f20746f6b656e2069642073706563696669656421000000000000000000006000830152602082019050919050565b6136f081613d64565b82525050565b60006137028285612ee2565b915061370e8284612ee2565b91508190509392505050565b600060208201905061372f6000830184612e52565b92915050565b600060808201905061374a6000830187612e52565b6137576020830186612e52565b61376460408301856136e7565b81810360608301526137768184612e70565b905095945050505050565b60006020820190506137966000830184612e61565b92915050565b600060208201905081810360008301526137b68184612ea9565b905092915050565b600060208201905081810360008301526137d781612f13565b9050919050565b600060208201905081810360008301526137f781612f79565b9050919050565b6000602082019050818103600083015261381781612fb9565b9050919050565b6000602082019050818103600083015261383781612ff9565b9050919050565b6000602082019050818103600083015261385781613039565b9050919050565b600060208201905081810360008301526138778161309f565b9050919050565b60006020820190508181036000830152613897816130df565b9050919050565b600060208201905081810360008301526138b781613145565b9050919050565b600060208201905081810360008301526138d781613185565b9050919050565b600060208201905081810360008301526138f7816131eb565b9050919050565b6000602082019050818103600083015261391781613251565b9050919050565b60006020820190508181036000830152613937816132b7565b9050919050565b600060208201905081810360008301526139578161331d565b9050919050565b600060208201905081810360008301526139778161335d565b9050919050565b60006020820190508181036000830152613997816133c3565b9050919050565b600060208201905081810360008301526139b781613429565b9050919050565b600060208201905081810360008301526139d78161348f565b9050919050565b600060208201905081810360008301526139f7816134f5565b9050919050565b60006020820190508181036000830152613a178161355b565b9050919050565b60006020820190508181036000830152613a37816135c1565b9050919050565b60006020820190508181036000830152613a5781613601565b9050919050565b60006020820190508181036000830152613a7781613641565b9050919050565b60006020820190508181036000830152613a97816136a7565b9050919050565b6000602082019050613ab360008301846136e7565b92915050565b6000604051905081810181811067ffffffffffffffff82111715613ae057613adf613ee9565b5b8060405250919050565b600067ffffffffffffffff821115613b0557613b04613ee9565b5b602082029050602081019050919050565b600067ffffffffffffffff821115613b3157613b30613ee9565b5b602082029050602081019050919050565b600067ffffffffffffffff821115613b5d57613b5c613ee9565b5b601f19601f8301169050602081019050919050565b600067ffffffffffffffff821115613b8d57613b8c613ee9565b5b601f19601f8301169050602081019050919050565b600081519050919050565b600081519050919050565b600082825260208201905092915050565b600082825260208201905092915050565b600081905092915050565b6000613bf082613d64565b9150613bfb83613d64565b9250827fffffffffffffffffffffffffffffffffffffffffffffffffffffffffffffffff03821115613c3057613c2f613e5c565b5b828201905092915050565b6000613c4682613d64565b9150613c5183613d64565b925082613c6157613c60613e8b565b5b828204905092915050565b6000613c7782613d64565b9150613c8283613d64565b9250817fffffffffffffffffffffffffffffffffffffffffffffffffffffffffffffffff0483118215151615613cbb57613cba613e5c565b5b828202905092915050565b6000613cd182613d64565b9150613cdc83613d64565b925082821015613cef57613cee613e5c565b5b828203905092915050565b6000613d0582613d44565b9050919050565b60008115159050919050565b60007fffffffff0000000000000000000000000000000000000000000000000000000082169050919050565b600073ffffffffffffffffffffffffffffffffffffffff82169050919050565b6000819050919050565b82818337600083830152505050565b60005b83811015613d9b578082015181840152602081019050613d80565b83811115613daa576000848401525b50505050565b60006002820490506001821680613dc857607f821691505b60208210811415613ddc57613ddb613eba565b5b50919050565b6000613ded82613d64565b91507fffffffffffffffffffffffffffffffffffffffffffffffffffffffffffffffff821415613e2057613e1f613e5c565b5b600182019050919050565b6000613e3682613d64565b9150613e4183613d64565b925082613e5157613e50613e8b565b5b828206905092915050565b7f4e487b7100000000000000000000000000000000000000000000000000000000600052601160045260246000fd5b7f4e487b7100000000000000000000000000000000000000000000000000000000600052601260045260246000fd5b7f4e487b7100000000000000000000000000000000000000000000000000000000600052602260045260246000fd5b7f4e487b7100000000000000000000000000000000000000000000000000000000600052604160045260246000fd5b6000601f19601f8301169050919050565b613f3281613cfa565b8114613f3d57600080fd5b50565b613f4981613d0c565b8114613f5457600080fd5b50565b613f6081613d18565b8114613f6b57600080fd5b50565b613f7781613d64565b8114613f8257600080fd5b5056fea26469706673582212207d031d5187ce36d5a08a492063d914d2a18365498d1f876c794b0bdf6732558664736f6c63430008000033",
  "immutableReferences": {},
  "source": "// SPDX-License-Identifier: MIT\r\npragma solidity ^0.8.0;\r\n\r\nimport \"@openzeppelin/contracts/token/ERC721/ERC721.sol\";\r\nimport \"@openzeppelin/contracts/utils/Counters.sol\";\r\nimport \"@openzeppelin/contracts/token/ERC721/extensions/ERC721URIStorage.sol\";\r\n\r\ncontract PixelPizzles is ERC721URIStorage {\r\n  using Counters for Counters.Counter;\r\n  Counters.Counter private _tokenIds;\r\n  \r\n  address owner;\r\n  bool private paused = false;\r\n  uint256 private solved = 0;\r\n  uint256 private price = 0.01 ether;\r\n  uint256 private maxMintAmount = 10;\r\n  uint256 private puzzleMaxSupply = 9999;\r\n  uint256 private totalMaxSupply = 11110;\r\n  string private puzzleBaseURI = \"\";\r\n  string private solvedBaseURI = \"\";\r\n  mapping (address => uint256[]) private addrToSolved;\r\n\r\n\r\n  constructor() ERC721(\"Pixel Pizzles\", \"PPZ\") {\r\n    owner = msg.sender;\r\n  }\r\n\r\n  modifier onlyOwner {\r\n    require(msg.sender == owner);\r\n    _;\r\n  }\r\n\r\n  function mint(address recipient, uint256 mintAmount)\r\n    public \r\n    payable\r\n    returns(uint256)\r\n  {\r\n    require(!paused, \"Contract is paused!\");\r\n    require(mintAmount > 0);\r\n    require(mintAmount <= maxMintAmount, \"Max-mint per time is 10\");\r\n    require(msg.value >= price * mintAmount, \"Not enough ETH sent; check price!\");\r\n    require(_tokenIds.current() + mintAmount <= puzzleMaxSupply, \"Not enough tokens left!\");\r\n\r\n    uint256 newItemId;\r\n    \r\n    for (uint256 i = 1; i <= mintAmount; i++) {\r\n      _tokenIds.increment();\r\n      newItemId = _tokenIds.current();\r\n      _mint(recipient, newItemId);\r\n      _setTokenURI(newItemId, puzzleBaseURI);\r\n    }\r\n\r\n    return newItemId;\r\n  }\r\n  \r\n  function transferToken(address to, uint256 tokenID)\r\n    public\r\n  {\r\n    require(!paused, \"Contract is paused!\");\r\n    safeTransferFrom(msg.sender, to, tokenID);\r\n  }\r\n  \r\n  function burnTokens(uint256[] memory tokenIDs)\r\n    public\r\n  {\r\n    require(!paused, \"Contract is paused!\");\r\n    require(tokenIDs.length > 0, \"No token id specified!\");\r\n    require(tokenIDs.length == 9, \"Can only burn 9 tokens at once!\");\r\n    \r\n    for (uint256 i = 0; i < 9; i++) {\r\n      require(ownerOf(tokenIDs[i]) == msg.sender, \"You don't own all tokens\");\r\n    }\r\n    \r\n    // create a mechanism to check that all the tokens are for a particular piece\r\n    // --\r\n    \r\n    uint256 onePiece = tokenIDs[1];\r\n    \r\n    for (uint256 i = 0; i < 9; i++) {\r\n      _burn(tokenIDs[i]);\r\n    }\r\n    \r\n    solved++;\r\n    uint256 newSolvedID = puzzleMaxSupply + solved;\r\n    _mint(msg.sender, newSolvedID);\r\n    _setTokenURI(newSolvedID, solvedBaseURI);\r\n    addrToSolved[msg.sender].push(onePiece);\r\n  }\r\n\r\n  function updateTokens(uint256[] memory tokenIDs, string[] memory tokenURIs)\r\n    public\r\n    onlyOwner\r\n  {\r\n    require(!paused, \"Contract is paused!\");\r\n    require(tokenIDs.length == tokenURIs.length);\r\n\r\n    for (uint256 i = 0; i < tokenIDs.length; i++) {\r\n      _setTokenURI(tokenIDs[i], tokenURIs[i]);\r\n    }\r\n  }\r\n  \r\n  function withdraw()\r\n    public\r\n    onlyOwner\r\n  {\r\n    payable(msg.sender).transfer(address(this).balance);\r\n  }\r\n  \r\n  function getPaused()\r\n    public\r\n    view\r\n    returns(bool)\r\n  {\r\n    return paused;\r\n  }\r\n  \r\n  function setPaused(bool value)\r\n    public\r\n    onlyOwner\r\n  {\r\n    require(value != paused);\r\n    paused = value;\r\n  }\r\n  \r\n  function getPrice()\r\n    public\r\n    view\r\n    returns(uint256)\r\n  {\r\n    return price;\r\n  }\r\n  \r\n  function setPrice(uint256 _price)\r\n    public\r\n    onlyOwner\r\n  {\r\n    price = _price;\r\n  }\r\n  \r\n  function getPuzzleBaseUri()\r\n    public\r\n    view\r\n    returns(string memory)\r\n  {\r\n    return puzzleBaseURI;\r\n  }\r\n  \r\n  function setPuzzleBaseUri(string memory uri)\r\n    public\r\n    onlyOwner\r\n  {\r\n    puzzleBaseURI = uri;\r\n  }\r\n  \r\n  function getSolvedBaseUri()\r\n    public\r\n    view\r\n    returns(string memory)\r\n  {\r\n    return solvedBaseURI;\r\n  }\r\n  \r\n  function setSolvedBaseUri(string memory uri)\r\n    public\r\n    onlyOwner\r\n  {\r\n    solvedBaseURI = uri;\r\n  }\r\n}",
  "sourcePath": "C:\\Users\\Oyeto\\Documents\\programming\\Projects\\web-apps\\Pixel Pizzles\\contracts\\PixelPizzles.sol",
  "compiler": {
    "name": "solc",
    "version": "0.8.0+commit.c7dfd78e.Emscripten.clang"
  },
  "schemaVersion": "3.4.3",
  "updatedAt": "2021-11-05T19:48:24.639Z",
  "networkType": "ethereum",
  "devdoc": {
    "kind": "dev",
    "methods": {
      "approve(address,uint256)": {
        "details": "See {IERC721-approve}."
      },
      "balanceOf(address)": {
        "details": "See {IERC721-balanceOf}."
      },
      "getApproved(uint256)": {
        "details": "See {IERC721-getApproved}."
      },
      "isApprovedForAll(address,address)": {
        "details": "See {IERC721-isApprovedForAll}."
      },
      "name()": {
        "details": "See {IERC721Metadata-name}."
      },
      "ownerOf(uint256)": {
        "details": "See {IERC721-ownerOf}."
      },
      "safeTransferFrom(address,address,uint256)": {
        "details": "See {IERC721-safeTransferFrom}."
      },
      "safeTransferFrom(address,address,uint256,bytes)": {
        "details": "See {IERC721-safeTransferFrom}."
      },
      "setApprovalForAll(address,bool)": {
        "details": "See {IERC721-setApprovalForAll}."
      },
      "supportsInterface(bytes4)": {
        "details": "See {IERC165-supportsInterface}."
      },
      "symbol()": {
        "details": "See {IERC721Metadata-symbol}."
      },
      "tokenURI(uint256)": {
        "details": "See {IERC721Metadata-tokenURI}."
      },
      "transferFrom(address,address,uint256)": {
        "details": "See {IERC721-transferFrom}."
      }
    },
    "version": 1
  },
  "userdoc": {
    "kind": "user",
    "methods": {},
    "version": 1
  }
}